{
  "_format": "hh-sol-artifact-1",
  "contractName": "Puma",
  "sourceName": "contracts/Puma.sol",
  "abi": [
    {
      "inputs": [
        {
          "internalType": "address payable",
          "name": "_systemAddress",
          "type": "address"
        }
      ],
      "stateMutability": "nonpayable",
      "type": "constructor"
    },
    {
      "inputs": [
        {
          "internalType": "address",
          "name": "sender",
          "type": "address"
        },
        {
          "internalType": "uint256",
          "name": "tokenId",
          "type": "uint256"
        },
        {
          "internalType": "address",
          "name": "owner",
          "type": "address"
        }
      ],
      "name": "ERC721IncorrectOwner",
      "type": "error"
    },
    {
      "inputs": [
        {
          "internalType": "address",
          "name": "operator",
          "type": "address"
        },
        {
          "internalType": "uint256",
          "name": "tokenId",
          "type": "uint256"
        }
      ],
      "name": "ERC721InsufficientApproval",
      "type": "error"
    },
    {
      "inputs": [
        {
          "internalType": "address",
          "name": "approver",
          "type": "address"
        }
      ],
      "name": "ERC721InvalidApprover",
      "type": "error"
    },
    {
      "inputs": [
        {
          "internalType": "address",
          "name": "operator",
          "type": "address"
        }
      ],
      "name": "ERC721InvalidOperator",
      "type": "error"
    },
    {
      "inputs": [
        {
          "internalType": "address",
          "name": "owner",
          "type": "address"
        }
      ],
      "name": "ERC721InvalidOwner",
      "type": "error"
    },
    {
      "inputs": [
        {
          "internalType": "address",
          "name": "receiver",
          "type": "address"
        }
      ],
      "name": "ERC721InvalidReceiver",
      "type": "error"
    },
    {
      "inputs": [
        {
          "internalType": "address",
          "name": "sender",
          "type": "address"
        }
      ],
      "name": "ERC721InvalidSender",
      "type": "error"
    },
    {
      "inputs": [
        {
          "internalType": "uint256",
          "name": "tokenId",
          "type": "uint256"
        }
      ],
      "name": "ERC721NonexistentToken",
      "type": "error"
    },
    {
      "anonymous": false,
      "inputs": [
        {
          "indexed": true,
          "internalType": "address",
          "name": "owner",
          "type": "address"
        },
        {
          "indexed": true,
          "internalType": "address",
          "name": "approved",
          "type": "address"
        },
        {
          "indexed": true,
          "internalType": "uint256",
          "name": "tokenId",
          "type": "uint256"
        }
      ],
      "name": "Approval",
      "type": "event"
    },
    {
      "anonymous": false,
      "inputs": [
        {
          "indexed": true,
          "internalType": "address",
          "name": "owner",
          "type": "address"
        },
        {
          "indexed": true,
          "internalType": "address",
          "name": "operator",
          "type": "address"
        },
        {
          "indexed": false,
          "internalType": "bool",
          "name": "approved",
          "type": "bool"
        }
      ],
      "name": "ApprovalForAll",
      "type": "event"
    },
    {
      "anonymous": false,
      "inputs": [
        {
          "indexed": false,
          "internalType": "uint256",
          "name": "_fromTokenId",
          "type": "uint256"
        },
        {
          "indexed": false,
          "internalType": "uint256",
          "name": "_toTokenId",
          "type": "uint256"
        }
      ],
      "name": "BatchMetadataUpdate",
      "type": "event"
    },
    {
      "anonymous": false,
      "inputs": [
        {
          "indexed": false,
          "internalType": "uint256",
          "name": "_tokenId",
          "type": "uint256"
        }
      ],
      "name": "MetadataUpdate",
      "type": "event"
    },
    {
      "anonymous": false,
      "inputs": [
        {
          "indexed": true,
          "internalType": "address",
          "name": "from",
          "type": "address"
        },
        {
          "indexed": true,
          "internalType": "address",
          "name": "to",
          "type": "address"
        },
        {
          "indexed": true,
          "internalType": "uint256",
          "name": "tokenId",
          "type": "uint256"
        }
      ],
      "name": "Transfer",
      "type": "event"
    },
    {
      "inputs": [
        {
          "internalType": "string",
          "name": "_dealID",
          "type": "string"
        },
        {
          "internalType": "uint256",
          "name": "_minAmt",
          "type": "uint256"
        },
        {
          "internalType": "uint256",
          "name": "_targetAmt",
          "type": "uint256"
        },
        {
          "internalType": "uint256",
          "name": "_floatingEndTimestamp",
          "type": "uint256"
        },
        {
          "internalType": "uint256",
          "name": "_expirationTimestamp",
          "type": "uint256"
        },
        {
          "internalType": "uint256",
          "name": "_tokenID",
          "type": "uint256"
        },
        {
          "internalType": "uint256",
          "name": "_interestRate",
          "type": "uint256"
        },
        {
          "internalType": "address payable",
          "name": "_companyAddress",
          "type": "address"
        }
      ],
      "name": "addDeal",
      "outputs": [],
      "stateMutability": "payable",
      "type": "function"
    },
    {
      "inputs": [
        {
          "internalType": "address payable",
          "name": "_investorAddress",
          "type": "address"
        },
        {
          "internalType": "string",
          "name": "_dealID",
          "type": "string"
        },
        {
          "internalType": "uint256",
          "name": "amount",
          "type": "uint256"
        }
      ],
      "name": "addInvestment",
      "outputs": [
        {
          "internalType": "uint256",
          "name": "",
          "type": "uint256"
        }
      ],
      "stateMutability": "payable",
      "type": "function"
    },
    {
      "inputs": [
        {
          "internalType": "address",
          "name": "to",
          "type": "address"
        },
        {
          "internalType": "uint256",
          "name": "tokenId",
          "type": "uint256"
        }
      ],
      "name": "approve",
      "outputs": [],
      "stateMutability": "nonpayable",
      "type": "function"
    },
    {
      "inputs": [
        {
          "internalType": "address",
          "name": "owner",
          "type": "address"
        }
      ],
      "name": "balanceOf",
      "outputs": [
        {
          "internalType": "uint256",
          "name": "",
          "type": "uint256"
        }
      ],
      "stateMutability": "view",
      "type": "function"
    },
    {
      "inputs": [
        {
          "internalType": "string",
          "name": "dealID",
          "type": "string"
        },
        {
          "internalType": "bool",
          "name": "approved",
          "type": "bool"
        }
      ],
      "name": "dealStartApproval",
      "outputs": [],
      "stateMutability": "payable",
      "type": "function"
    },
    {
      "inputs": [
        {
          "internalType": "string",
          "name": "",
          "type": "string"
        }
      ],
      "name": "deals",
      "outputs": [
        {
          "internalType": "string",
          "name": "dealID",
          "type": "string"
        },
        {
          "internalType": "uint256",
          "name": "minAmt",
          "type": "uint256"
        },
        {
          "internalType": "uint256",
          "name": "amountRaised",
          "type": "uint256"
        },
        {
          "internalType": "uint256",
          "name": "targetAmt",
          "type": "uint256"
        },
        {
          "internalType": "uint256",
          "name": "floatingEndTimestamp",
          "type": "uint256"
        },
        {
          "internalType": "uint256",
          "name": "expirationTimestamp",
          "type": "uint256"
        },
        {
          "internalType": "uint256",
          "name": "tokenID",
          "type": "uint256"
        },
        {
          "internalType": "uint256",
          "name": "promisedInterestRate",
          "type": "uint256"
        },
        {
          "internalType": "uint256",
          "name": "interestRate",
          "type": "uint256"
        },
        {
          "internalType": "address payable",
          "name": "companyAddress",
          "type": "address"
        }
      ],
      "stateMutability": "view",
      "type": "function"
    },
    {
      "inputs": [
        {
          "internalType": "uint256",
          "name": "tokenId",
          "type": "uint256"
        }
      ],
      "name": "getApproved",
      "outputs": [
        {
          "internalType": "address",
          "name": "",
          "type": "address"
        }
      ],
      "stateMutability": "view",
      "type": "function"
    },
    {
      "inputs": [
        {
          "internalType": "uint256",
          "name": "",
          "type": "uint256"
        }
      ],
      "name": "investments",
      "outputs": [
        {
          "internalType": "address payable",
          "name": "investorAddress",
          "type": "address"
        },
        {
          "internalType": "uint256",
          "name": "amountInvested",
          "type": "uint256"
        },
        {
          "internalType": "string",
          "name": "dealID",
          "type": "string"
        }
      ],
      "stateMutability": "view",
      "type": "function"
    },
    {
      "inputs": [
        {
          "internalType": "address",
          "name": "owner",
          "type": "address"
        },
        {
          "internalType": "address",
          "name": "operator",
          "type": "address"
        }
      ],
      "name": "isApprovedForAll",
      "outputs": [
        {
          "internalType": "bool",
          "name": "",
          "type": "bool"
        }
      ],
      "stateMutability": "view",
      "type": "function"
    },
    {
      "inputs": [
        {
          "internalType": "address payable",
          "name": "recipient",
          "type": "address"
        },
        {
          "internalType": "string",
          "name": "tokenURI",
          "type": "string"
        }
      ],
      "name": "mintNFT",
      "outputs": [
        {
          "internalType": "uint256",
          "name": "",
          "type": "uint256"
        }
      ],
      "stateMutability": "nonpayable",
      "type": "function"
    },
    {
      "inputs": [],
      "name": "name",
      "outputs": [
        {
          "internalType": "string",
          "name": "",
          "type": "string"
        }
      ],
      "stateMutability": "view",
      "type": "function"
    },
    {
      "inputs": [
        {
          "internalType": "uint256",
          "name": "tokenId",
          "type": "uint256"
        }
      ],
      "name": "ownerOf",
      "outputs": [
        {
          "internalType": "address",
          "name": "",
          "type": "address"
        }
      ],
      "stateMutability": "view",
      "type": "function"
    },
    {
      "inputs": [
        {
          "internalType": "uint256",
          "name": "investmentID",
          "type": "uint256"
        }
      ],
      "name": "revertInvestment",
      "outputs": [],
      "stateMutability": "payable",
      "type": "function"
    },
    {
      "inputs": [
        {
          "internalType": "address",
          "name": "from",
          "type": "address"
        },
        {
          "internalType": "address",
          "name": "to",
          "type": "address"
        },
        {
          "internalType": "uint256",
          "name": "tokenId",
          "type": "uint256"
        }
      ],
      "name": "safeTransferFrom",
      "outputs": [],
      "stateMutability": "nonpayable",
      "type": "function"
    },
    {
      "inputs": [
        {
          "internalType": "address",
          "name": "from",
          "type": "address"
        },
        {
          "internalType": "address",
          "name": "to",
          "type": "address"
        },
        {
          "internalType": "uint256",
          "name": "tokenId",
          "type": "uint256"
        },
        {
          "internalType": "bytes",
          "name": "data",
          "type": "bytes"
        }
      ],
      "name": "safeTransferFrom",
      "outputs": [],
      "stateMutability": "nonpayable",
      "type": "function"
    },
    {
      "inputs": [
        {
          "internalType": "address",
          "name": "operator",
          "type": "address"
        },
        {
          "internalType": "bool",
          "name": "approved",
          "type": "bool"
        }
      ],
      "name": "setApprovalForAll",
      "outputs": [],
      "stateMutability": "nonpayable",
      "type": "function"
    },
    {
      "inputs": [
        {
          "internalType": "bytes4",
          "name": "interfaceId",
          "type": "bytes4"
        }
      ],
      "name": "supportsInterface",
      "outputs": [
        {
          "internalType": "bool",
          "name": "",
          "type": "bool"
        }
      ],
      "stateMutability": "view",
      "type": "function"
    },
    {
      "inputs": [],
      "name": "symbol",
      "outputs": [
        {
          "internalType": "string",
          "name": "",
          "type": "string"
        }
      ],
      "stateMutability": "view",
      "type": "function"
    },
    {
      "inputs": [
        {
          "internalType": "uint256",
          "name": "tokenId",
          "type": "uint256"
        }
      ],
      "name": "tokenURI",
      "outputs": [
        {
          "internalType": "string",
          "name": "",
          "type": "string"
        }
      ],
      "stateMutability": "view",
      "type": "function"
    },
    {
      "inputs": [
        {
          "internalType": "string",
          "name": "_dealID",
          "type": "string"
        }
      ],
      "name": "transferAllBackPerDeal",
      "outputs": [],
      "stateMutability": "payable",
      "type": "function"
    },
    {
      "inputs": [
        {
          "internalType": "address",
          "name": "from",
          "type": "address"
        },
        {
          "internalType": "address",
          "name": "to",
          "type": "address"
        },
        {
          "internalType": "uint256",
          "name": "tokenId",
          "type": "uint256"
        }
      ],
      "name": "transferFrom",
      "outputs": [],
      "stateMutability": "nonpayable",
      "type": "function"
    },
    {
      "inputs": [
        {
          "internalType": "address",
          "name": "actor",
          "type": "address"
        },
        {
          "internalType": "bool",
          "name": "willSend",
          "type": "bool"
        },
        {
          "internalType": "uint256",
          "name": "tokenID",
          "type": "uint256"
        }
      ],
      "name": "transferNFT",
      "outputs": [],
      "stateMutability": "nonpayable",
      "type": "function"
    }
  ],
  "bytecode": "0x60806040523480156200001157600080fd5b50604051620030b6380380620030b68339810160408190526200003491620000b9565b60405180604001604052806005815260200164135e53919560da1b815250604051806040016040528060048152602001631353919560e21b815250816000908162000080919062000192565b5060016200008f828262000192565b5050600980546001600160a01b0319166001600160a01b039390931692909217909155506200025e565b600060208284031215620000cc57600080fd5b81516001600160a01b0381168114620000e457600080fd5b9392505050565b634e487b7160e01b600052604160045260246000fd5b600181811c908216806200011657607f821691505b6020821081036200013757634e487b7160e01b600052602260045260246000fd5b50919050565b601f8211156200018d576000816000526020600020601f850160051c81016020861015620001685750805b601f850160051c820191505b81811015620001895782815560010162000174565b5050505b505050565b81516001600160401b03811115620001ae57620001ae620000eb565b620001c681620001bf845462000101565b846200013d565b602080601f831160018114620001fe5760008415620001e55750858301515b600019600386901b1c1916600185901b17855562000189565b600085815260208120601f198616915b828110156200022f578886015182559484019460019091019084016200020e565b50858210156200024e5787850151600019600388901b60f8161c191681555b5050505050600190811b01905550565b612e48806200026e6000396000f3fe6080604052600436106101755760003560e01c806396f92cda116100cb578063bd330d7b1161007f578063e985e9c511610059578063e985e9c5146103e3578063eacabe141461042c578063fd345c8a1461044c57600080fd5b8063bd330d7b1461039d578063c87b56dd146103b0578063e0e06210146103d057600080fd5b8063a0d836f1116100b0578063a0d836f11461033d578063a22cb4651461035d578063b88d4fde1461037d57600080fd5b806396f92cda146102f4578063a0a57dac1461030757600080fd5b806323b872dd1161012d5780636352211e116101075780636352211e1461029157806370a08231146102b157806395d89b41146102df57600080fd5b806323b872dd1461023e57806326b3c5f91461025e57806342842e0e1461027157600080fd5b8063081812fc1161015e578063081812fc146101d1578063095ea7b314610209578063180bbc171461022b57600080fd5b806301ffc9a71461017a57806306fdde03146101af575b600080fd5b34801561018657600080fd5b5061019a6101953660046125af565b61047b565b60405190151581526020015b60405180910390f35b3480156101bb57600080fd5b506101c46104bf565b6040516101a6919061261c565b3480156101dd57600080fd5b506101f16101ec36600461262f565b610551565b6040516001600160a01b0390911681526020016101a6565b34801561021557600080fd5b5061022961022436600461265d565b61057a565b005b61022961023936600461274a565b610589565b34801561024a57600080fd5b50610229610259366004612798565b61088e565b61022961026c3660046127d9565b610919565b34801561027d57600080fd5b5061022961028c366004612798565b610c82565b34801561029d57600080fd5b506101f16102ac36600461262f565b610c9d565b3480156102bd57600080fd5b506102d16102cc36600461280e565b610ca8565b6040519081526020016101a6565b3480156102eb57600080fd5b506101c4610d09565b61022961030236600461282b565b610d18565b34801561031357600080fd5b506103276103223660046127d9565b6110ee565b6040516101a69a999897969594939291906128b7565b34801561034957600080fd5b5061022961035836600461291a565b6111db565b34801561036957600080fd5b50610229610378366004612958565b6112b4565b34801561038957600080fd5b50610229610398366004612984565b6112bf565b6102296103ab36600461262f565b6112d6565b3480156103bc57600080fd5b506101c46103cb36600461262f565b61157f565b6102d16103de366004612a04565b611690565b3480156103ef57600080fd5b5061019a6103fe366004612a5d565b6001600160a01b03918216600090815260056020908152604080832093909416825291909152205460ff1690565b34801561043857600080fd5b506102d1610447366004612a96565b611ac7565b34801561045857600080fd5b5061046c61046736600461262f565b611b01565b6040516101a693929190612ae6565b60006001600160e01b031982167f490649060000000000000000000000000000000000000000000000000000000014806104b957506104b982611bb6565b92915050565b6060600080546104ce90612b17565b80601f01602080910402602001604051908101604052809291908181526020018280546104fa90612b17565b80156105475780601f1061051c57610100808354040283529160200191610547565b820191906000526020600020905b81548152906001019060200180831161052a57829003601f168201915b5050505050905090565b600061055c82611c51565b506000828152600460205260409020546001600160a01b03166104b9565b610585828233611c8a565b5050565b6009546001600160a01b031633146105f25760405162461bcd60e51b815260206004820152602160248201527f4f6e6c792061646d696e2063616e2063616c6c20746869732066756e6374696f6044820152603760f91b60648201526084015b60405180910390fd5b6000600a836040516106049190612b51565b908152602001604051809103902060030154116106635760405162461bcd60e51b815260206004820152601560248201527f4465616c20446f6573206e6f742065786973747321000000000000000000000060448201526064016105e9565b600a826040516106739190612b51565b908152602001604051809103902060030154600a836040516106959190612b51565b90815260200160405180910390206002015414806106b05750805b156107e857600a826040516106c59190612b51565b9081526020016040518091039020600201543410156107265760405162461bcd60e51b815260206004820152601360248201527f496e73756666696369656e742046756e6473210000000000000000000000000060448201526064016105e9565b600a826040516107369190612b51565b908152604051908190036020018120600901546001600160a01b0316906108fc90600a90610765908690612b51565b90815260405190819003602001812060020154801590920291906000818181858888f1935050505015801561079e573d6000803e3d6000fd5b50600a826040516107af9190612b51565b908152602001604051809103902060070154600a836040516107d19190612b51565b908152604051908190036020019020600801555050565b600a826040516107f89190612b51565b908152602001604051809103902060040154600a8360405161081a9190612b51565b9081526040519081900360200190206005015561083682610919565b610585600a836040516108499190612b51565b908152604051908190036020018120600901546001600160a01b031690600090600a90610877908790612b51565b9081526020016040518091039020600601546111db565b6001600160a01b0382166108b857604051633250574960e11b8152600060048201526024016105e9565b60006108c5838333611c97565b9050836001600160a01b0316816001600160a01b031614610913576040516364283d7b60e01b81526001600160a01b03808616600483015260248201849052821660448201526064016105e9565b50505050565b6009546001600160a01b0316331461097d5760405162461bcd60e51b815260206004820152602160248201527f4f6e6c792061646d696e2063616e2063616c6c20746869732066756e6374696f6044820152603760f91b60648201526084016105e9565b6000600a8260405161098f9190612b51565b908152602001604051809103902060030154116109ee5760405162461bcd60e51b815260206004820152601560248201527f4465616c20446f6573206e6f742065786973747321000000000000000000000060448201526064016105e9565b42600a826040516109ff9190612b51565b9081526020016040518091039020600501541015610a855760405162461bcd60e51b815260206004820152602560248201527f43616e2774207472616e73666572206265666f7265206465616c20697320657860448201527f706972656400000000000000000000000000000000000000000000000000000060648201526084016105e9565b600063bbf81e00600a83604051610a9c9190612b51565b908152602001604051809103902060040154600a84604051610abe9190612b51565b908152602001604051809103902060050154610ada9190612b83565b600a84604051610aea9190612b51565b9081526020016040518091039020600801546064610b089190612b96565b600a85604051610b189190612b51565b908152602001604051809103902060030154610b349190612ba9565b610b3e9190612ba9565b610b489190612bc0565b905080341015610b9a5760405162461bcd60e51b815260206004820152601260248201527f496e73756666696369656e742066756e6473000000000000000000000000000060448201526064016105e9565b60015b600854811015610c7d578280519060200120600b6000838152602001908152602001600020600201604051610bd29190612c55565b6040518091039020148015610bf757506000818152600b602052604090206001015415155b15610c75576000818152600b60205260408082205490516001600160a01b039091169184156108fc02918591818181858888f19350505050158015610c40573d6000803e3d6000fd5b506000818152600b6020526040812080546001600160a01b03191681556001810182905590610c726002830182612543565b50505b600101610b9d565b505050565b610c7d838383604051806020016040528060008152506112bf565b60006104b982611c51565b60006001600160a01b038216610ced576040517f89c62b64000000000000000000000000000000000000000000000000000000008152600060048201526024016105e9565b506001600160a01b031660009081526003602052604090205490565b6060600180546104ce90612b17565b6009546001600160a01b03163314610d7c5760405162461bcd60e51b815260206004820152602160248201527f4f6e6c792061646d696e2063616e2063616c6c20746869732066756e6374696f6044820152603760f91b60648201526084016105e9565b6009546001600160a01b0316610d9184610c9d565b6001600160a01b031614610e0d5760405162461bcd60e51b815260206004820152602960248201527f4e4654206d757374206265207472616e7366657272656420746f20737973746560448201527f6d4164647265737321000000000000000000000000000000000000000000000060648201526084016105e9565b6000885111610e5e5760405162461bcd60e51b815260206004820152601760248201527f4465616c2049442063616e6e6f7420626520656d70747900000000000000000060448201526064016105e9565b4284118015610e6d5750848410155b610eb95760405162461bcd60e51b815260206004820152601c60248201527f496e76616c69642065787069726174696f6e2074696d657374616d700000000060448201526064016105e9565b428511610f085760405162461bcd60e51b815260206004820152601e60248201527f496e76616c696420666c6f6174696e67456e642074696d657374616d7021000060448201526064016105e9565b60008711610f585760405162461bcd60e51b815260206004820152601c60248201527f43616e2774206163636570742030206173206d696e20616d6f756e740000000060448201526064016105e9565b86861015610fce5760405162461bcd60e51b815260206004820152603960248201527f54617267657420416d6f756e742073686f756c64206265206d6f72652074686160448201527f6e2f657175616c20746f206d696e696d756d20616d6f756e740000000000000060648201526084016105e9565b6040518061014001604052808981526020018881526020016000815260200187815260200186815260200185815260200184815260200183815260200160008152602001826001600160a01b0316815250600a8960405161102f9190612b51565b9081526040519081900360200190208151819061104c9082612cb1565b506020820151600182015560408201516002820155606082015160038201556080820151600482015560a0820151600582015560c0820151600682015560e08201516007820155610100820151600882015561012090910151600991820180546001600160a01b0319166001600160a01b0392831617905590546110e391168960646110d98a601e612ba9565b6103de9190612bc0565b505050505050505050565b8051602081830181018051600a8252928201919093012091528054819061111490612b17565b80601f016020809104026020016040519081016040528092919081815260200182805461114090612b17565b801561118d5780601f106111625761010080835404028352916020019161118d565b820191906000526020600020905b81548152906001019060200180831161117057829003601f168201915b50505060018401546002850154600386015460048701546005880154600689015460078a015460088b01546009909b0154999a9699959850939650919490939192916001600160a01b03168a565b6000826111f3576009546001600160a01b03166111f5565b835b90506000836112045784611211565b6009546001600160a01b03165b9050816001600160a01b031661122684610c9d565b6001600160a01b0316146112a25760405162461bcd60e51b815260206004820152602a60248201527f53656e646572206d75737420626520746865206f776e6572206f66207468617460448201527f2042696c6c284e4654290000000000000000000000000000000000000000000060648201526084016105e9565b6112ad828285611d90565b5050505050565b610585338383611dab565b6112ca84848461088e565b61091384848484611e63565b6009546001600160a01b0316331461133a5760405162461bcd60e51b815260206004820152602160248201527f4f6e6c792061646d696e2063616e2063616c6c20746869732066756e6374696f6044820152603760f91b60648201526084016105e9565b6000818152600b60205260409020600101546113985760405162461bcd60e51b815260206004820152601b60248201527f496e766573746d656e7420646f6573206e6f742065786973747321000000000060448201526064016105e9565b42600a600b60008481526020019081526020016000206002016040516113be9190612c55565b908152602001604051809103902060040154116114435760405162461bcd60e51b815260206004820152602c60248201527f467265657a696e6720706572696f6420737461727465642c2063616e2774207760448201527f69746864726177206e6f7721000000000000000000000000000000000000000060648201526084016105e9565b6000818152600b60205260409020600101546114a15760405162461bcd60e51b815260206004820152601460248201527f496e73756666696369656e742042616c616e636500000000000000000000000060448201526064016105e9565b6000818152600b60205260409020600101543410156115025760405162461bcd60e51b815260206004820152601260248201527f496e73756666696369656e742066756e6473000000000000000000000000000060448201526064016105e9565b6000818152600b6020526040808220805460019091015491516001600160a01b039091169282156108fc02929190818181858888f1935050505015801561154d573d6000803e3d6000fd5b506000818152600b6020526040812080546001600160a01b03191681556001810182905590610c7d6002830182612543565b606061158a82611c51565b50600082815260066020526040812080546115a490612b17565b80601f01602080910402602001604051908101604052809291908181526020018280546115d090612b17565b801561161d5780601f106115f25761010080835404028352916020019161161d565b820191906000526020600020905b81548152906001019060200180831161160057829003601f168201915b50505050509050600061163b60408051602081019091526000815290565b9050805160000361164d575092915050565b81511561167f578082604051602001611667929190612d71565b60405160208183030381529060405292505050919050565b61168884611f85565b949350505050565b6000808351116116e25760405162461bcd60e51b815260206004820152601760248201527f4465616c2049442063616e6e6f7420626520656d70747900000000000000000060448201526064016105e9565b6000600a846040516116f49190612b51565b908152602001604051809103902060030154116117535760405162461bcd60e51b815260206004820152601560248201527f4465616c20446f6573206e6f742065786973747321000000000000000000000060448201526064016105e9565b42600a846040516117649190612b51565b908152602001604051809103902060040154116117e95760405162461bcd60e51b815260206004820152602260248201527f466c6f6174696e6720706572696f64206f766572212043616e277420696e766560448201527f737400000000000000000000000000000000000000000000000000000000000060648201526084016105e9565b600a836040516117f99190612b51565b908152602001604051809103902060020154826118169190612b96565b600a846040516118269190612b51565b90815260200160405180910390206003015410156118ab5760405162461bcd60e51b8152602060048201526024808201527f43616e277420496e76657374206d6f7265207468616e206c696d697420616d6f60448201527f756e74210000000000000000000000000000000000000000000000000000000060648201526084016105e9565b6000600a846040516118bd9190612b51565b908152602001604051809103902060020154600a856040516118df9190612b51565b9081526020016040518091039020600301546118fb9190612b83565b9050600a8460405161190d9190612b51565b908152602001604051809103902060010154831015806119575750600a846040516119389190612b51565b9081526020016040518091039020600101548110801561195757508083145b6119cb576040805162461bcd60e51b81526020600482015260248101919091527f416d6f756e7420496e766573746564206d757374206265203e3d206d696e206160448201527f6d6f756e74206f7220626520746865206c617374207472616e73616374696f6e60648201526084016105e9565b6009546040516001600160a01b039091169084156108fc029085906000818181858888f19350505050158015611a05573d6000803e3d6000fd5b5060088054906000611a1683612da0565b9091555050604080516060810182526001600160a01b03878116825260208083018781528385018981526008546000908152600b90935294909120835181546001600160a01b031916931692909217825551600182015591519091906002820190611a819082612cb1565b5090505082600a85604051611a969190612b51565b90815260200160405180910390206002016000828254611ab69190612b96565b909155505060085495945050505050565b600754600090611ad78482611ffa565b611ae18184612078565b600160076000828254611af49190612b96565b9091555090949350505050565b600b602052600090815260409020805460018201546002830180546001600160a01b03909316939192611b3390612b17565b80601f0160208091040260200160405190810160405280929190818152602001828054611b5f90612b17565b8015611bac5780601f10611b8157610100808354040283529160200191611bac565b820191906000526020600020905b815481529060010190602001808311611b8f57829003601f168201915b5050505050905083565b60006001600160e01b031982167f80ac58cd000000000000000000000000000000000000000000000000000000001480611c1957506001600160e01b031982167f5b5e139f00000000000000000000000000000000000000000000000000000000145b806104b957507f01ffc9a7000000000000000000000000000000000000000000000000000000006001600160e01b03198316146104b9565b6000818152600260205260408120546001600160a01b0316806104b957604051637e27328960e01b8152600481018490526024016105e9565b610c7d83838360016120c8565b6000828152600260205260408120546001600160a01b0390811690831615611cc457611cc4818486612206565b6001600160a01b03811615611d0257611ce16000856000806120c8565b6001600160a01b038116600090815260036020526040902080546000190190555b6001600160a01b03851615611d31576001600160a01b0385166000908152600360205260409020805460010190555b60008481526002602052604080822080546001600160a01b0319166001600160a01b0389811691821790925591518793918516917fddf252ad1be2c89b69c2b068fc378daa952ba7f163c4a11628f55a4df523b3ef91a4949350505050565b610c7d83838360405180602001604052806000815250612283565b6001600160a01b038216611df6576040517f5b08ba180000000000000000000000000000000000000000000000000000000081526001600160a01b03831660048201526024016105e9565b6001600160a01b03838116600081815260056020908152604080832094871680845294825291829020805460ff191686151590811790915591519182527f17307eab39ab6107e8899845ad3d59bd9653f200f220920489ca2b5937696c31910160405180910390a3505050565b6001600160a01b0383163b1561091357604051630a85bd0160e11b81526001600160a01b0384169063150b7a0290611ea5903390889087908790600401612db9565b6020604051808303816000875af1925050508015611ee0575060408051601f3d908101601f19168201909252611edd91810190612df5565b60015b611f49573d808015611f0e576040519150601f19603f3d011682016040523d82523d6000602084013e611f13565b606091505b508051600003611f4157604051633250574960e11b81526001600160a01b03851660048201526024016105e9565b805181602001fd5b6001600160e01b03198116630a85bd0160e11b146112ad57604051633250574960e11b81526001600160a01b03851660048201526024016105e9565b6060611f9082611c51565b506000611fa860408051602081019091526000815290565b90506000815111611fc85760405180602001604052806000815250611ff3565b80611fd28461228e565b604051602001611fe3929190612d71565b6040516020818303038152906040525b9392505050565b6001600160a01b03821661202457604051633250574960e11b8152600060048201526024016105e9565b600061203283836000611c97565b90506001600160a01b03811615610c7d576040517f73c6ac6e000000000000000000000000000000000000000000000000000000008152600060048201526024016105e9565b60008281526006602052604090206120908282612cb1565b506040518281527ff8e1a15aba9398e019f0b49df1a4fde98ee17ae345cb5f6b5e2c27f5033e8ce79060200160405180910390a15050565b80806120dc57506001600160a01b03821615155b156121d65760006120ec84611c51565b90506001600160a01b038316158015906121185750826001600160a01b0316816001600160a01b031614155b801561214a57506001600160a01b0380821660009081526005602090815260408083209387168352929052205460ff16155b1561218c576040517fa9fbf51f0000000000000000000000000000000000000000000000000000000081526001600160a01b03841660048201526024016105e9565b81156121d45783856001600160a01b0316826001600160a01b03167f8c5be1e5ebec7d5bd14f71427d1e84f3dd0314c0f7b2291e5b200ac8c7c3b92560405160405180910390a45b505b5050600090815260046020526040902080546001600160a01b0319166001600160a01b0392909216919091179055565b61221183838361232e565b610c7d576001600160a01b03831661223f57604051637e27328960e01b8152600481018290526024016105e9565b6040517f177e802f0000000000000000000000000000000000000000000000000000000081526001600160a01b0383166004820152602481018290526044016105e9565b6112ca8484846123b1565b6060600061229b83612461565b600101905060008167ffffffffffffffff8111156122bb576122bb612689565b6040519080825280601f01601f1916602001820160405280156122e5576020820181803683370190505b5090508181016020015b600019017f3031323334353637383961626364656600000000000000000000000000000000600a86061a8153600a85049450846122ef57509392505050565b60006001600160a01b038316158015906116885750826001600160a01b0316846001600160a01b0316148061238857506001600160a01b0380851660009081526005602090815260408083209387168352929052205460ff165b806116885750506000908152600460205260409020546001600160a01b03908116911614919050565b6001600160a01b0382166123db57604051633250574960e11b8152600060048201526024016105e9565b60006123e983836000611c97565b90506001600160a01b03811661241557604051637e27328960e01b8152600481018390526024016105e9565b836001600160a01b0316816001600160a01b031614610913576040516364283d7b60e01b81526001600160a01b03808616600483015260248201849052821660448201526064016105e9565b6000807a184f03e93ff9f4daa797ed6e38ed64bf6a1f01000000000000000083106124aa577a184f03e93ff9f4daa797ed6e38ed64bf6a1f010000000000000000830492506040015b6d04ee2d6d415b85acef810000000083106124d6576d04ee2d6d415b85acef8100000000830492506020015b662386f26fc1000083106124f457662386f26fc10000830492506010015b6305f5e100831061250c576305f5e100830492506008015b612710831061252057612710830492506004015b60648310612532576064830492506002015b600a83106104b95760010192915050565b50805461254f90612b17565b6000825580601f1061255f575050565b601f01602090049060005260206000209081019061257d9190612580565b50565b5b808211156125955760008155600101612581565b5090565b6001600160e01b03198116811461257d57600080fd5b6000602082840312156125c157600080fd5b8135611ff381612599565b60005b838110156125e75781810151838201526020016125cf565b50506000910152565b600081518084526126088160208601602086016125cc565b601f01601f19169290920160200192915050565b602081526000611ff360208301846125f0565b60006020828403121561264157600080fd5b5035919050565b6001600160a01b038116811461257d57600080fd5b6000806040838503121561267057600080fd5b823561267b81612648565b946020939093013593505050565b634e487b7160e01b600052604160045260246000fd5b600067ffffffffffffffff808411156126ba576126ba612689565b604051601f8501601f19908116603f011681019082821181831017156126e2576126e2612689565b816040528093508581528686860111156126fb57600080fd5b858560208301376000602087830101525050509392505050565b600082601f83011261272657600080fd5b611ff38383356020850161269f565b8035801515811461274557600080fd5b919050565b6000806040838503121561275d57600080fd5b823567ffffffffffffffff81111561277457600080fd5b61278085828601612715565b92505061278f60208401612735565b90509250929050565b6000806000606084860312156127ad57600080fd5b83356127b881612648565b925060208401356127c881612648565b929592945050506040919091013590565b6000602082840312156127eb57600080fd5b813567ffffffffffffffff81111561280257600080fd5b61168884828501612715565b60006020828403121561282057600080fd5b8135611ff381612648565b600080600080600080600080610100898b03121561284857600080fd5b883567ffffffffffffffff81111561285f57600080fd5b61286b8b828c01612715565b9850506020890135965060408901359550606089013594506080890135935060a0890135925060c0890135915060e08901356128a681612648565b809150509295985092959890939650565b60006101408083526128cb8184018e6125f0565b602084019c909c52505060408101989098526060880196909652608087019490945260a086019290925260c085015260e08401526101008301526001600160a01b031661012090910152919050565b60008060006060848603121561292f57600080fd5b833561293a81612648565b925061294860208501612735565b9150604084013590509250925092565b6000806040838503121561296b57600080fd5b823561297681612648565b915061278f60208401612735565b6000806000806080858703121561299a57600080fd5b84356129a581612648565b935060208501356129b581612648565b925060408501359150606085013567ffffffffffffffff8111156129d857600080fd5b8501601f810187136129e957600080fd5b6129f88782356020840161269f565b91505092959194509250565b600080600060608486031215612a1957600080fd5b8335612a2481612648565b9250602084013567ffffffffffffffff811115612a4057600080fd5b612a4c86828701612715565b925050604084013590509250925092565b60008060408385031215612a7057600080fd5b8235612a7b81612648565b91506020830135612a8b81612648565b809150509250929050565b60008060408385031215612aa957600080fd5b8235612ab481612648565b9150602083013567ffffffffffffffff811115612ad057600080fd5b612adc85828601612715565b9150509250929050565b6001600160a01b0384168152826020820152606060408201526000612b0e60608301846125f0565b95945050505050565b600181811c90821680612b2b57607f821691505b602082108103612b4b57634e487b7160e01b600052602260045260246000fd5b50919050565b60008251612b638184602087016125cc565b9190910192915050565b634e487b7160e01b600052601160045260246000fd5b818103818111156104b9576104b9612b6d565b808201808211156104b9576104b9612b6d565b80820281158282048414176104b9576104b9612b6d565b600082612bdd57634e487b7160e01b600052601260045260246000fd5b500490565b60008154612bef81612b17565b60018281168015612c075760018114612c1c57612c4b565b60ff1984168752821515830287019450612c4b565b8560005260208060002060005b85811015612c425781548a820152908401908201612c29565b50505082870194505b5050505092915050565b6000611ff38284612be2565b601f821115610c7d576000816000526020600020601f850160051c81016020861015612c8a5750805b601f850160051c820191505b81811015612ca957828155600101612c96565b505050505050565b815167ffffffffffffffff811115612ccb57612ccb612689565b612cdf81612cd98454612b17565b84612c61565b602080601f831160018114612d145760008415612cfc5750858301515b600019600386901b1c1916600185901b178555612ca9565b600085815260208120601f198616915b82811015612d4357888601518255948401946001909101908401612d24565b5085821015612d615787850151600019600388901b60f8161c191681555b5050505050600190811b01905550565b60008351612d838184602088016125cc565b835190830190612d978183602088016125cc565b01949350505050565b600060018201612db257612db2612b6d565b5060010190565b60006001600160a01b03808716835280861660208401525083604083015260806060830152612deb60808301846125f0565b9695505050505050565b600060208284031215612e0757600080fd5b8151611ff38161259956fea2646970667358221220f53330edc8cd1c9ffce57c190482a713306978622be4dafd194e658a2dbd4d8b64736f6c63430008180033",
  "linkReferences": {},
  "deployedLinkReferences": {}
}