{
  "_format": "hh-sol-artifact-1",
  "contractName": "Investo",
  "sourceName": "contracts/Investo.sol",
  "abi": [
    {
      "inputs": [
        {
          "internalType": "address",
          "name": "_nftAddress",
          "type": "address"
        }
      ],
      "stateMutability": "nonpayable",
      "type": "constructor"
    },
    {
      "inputs": [
        {
          "internalType": "address",
          "name": "owner",
          "type": "address"
        }
      ],
      "name": "OwnableInvalidOwner",
      "type": "error"
    },
    {
      "inputs": [
        {
          "internalType": "address",
          "name": "account",
          "type": "address"
        }
      ],
      "name": "OwnableUnauthorizedAccount",
      "type": "error"
    },
    {
      "anonymous": false,
      "inputs": [
        {
          "indexed": false,
          "internalType": "uint256",
          "name": "dealId",
          "type": "uint256"
        },
        {
          "indexed": false,
          "internalType": "address",
          "name": "seller",
          "type": "address"
        },
        {
          "indexed": false,
          "internalType": "uint256",
          "name": "tokenID",
          "type": "uint256"
        }
      ],
      "name": "DealCreated",
      "type": "event"
    },
    {
      "anonymous": false,
      "inputs": [
        {
          "indexed": true,
          "internalType": "uint256",
          "name": "dealID",
          "type": "uint256"
        },
        {
          "indexed": true,
          "internalType": "address",
          "name": "seller",
          "type": "address"
        },
        {
          "indexed": false,
          "internalType": "uint256",
          "name": "totalRepaid",
          "type": "uint256"
        }
      ],
      "name": "DealRepaid",
      "type": "event"
    },
    {
      "anonymous": false,
      "inputs": [
        {
          "indexed": true,
          "internalType": "address",
          "name": "previousOwner",
          "type": "address"
        },
        {
          "indexed": true,
          "internalType": "address",
          "name": "newOwner",
          "type": "address"
        }
      ],
      "name": "OwnershipTransferred",
      "type": "event"
    },
    {
      "inputs": [
        {
          "internalType": "uint256",
          "name": "_minAmt",
          "type": "uint256"
        },
        {
          "internalType": "uint256",
          "name": "_targetAmount",
          "type": "uint256"
        },
        {
          "internalType": "uint256",
          "name": "_interestRate",
          "type": "uint256"
        },
        {
          "internalType": "uint256",
          "name": "_startDate",
          "type": "uint256"
        },
        {
          "internalType": "uint256",
          "name": "_endDate",
          "type": "uint256"
        },
        {
          "internalType": "uint256",
          "name": "_tokenID",
          "type": "uint256"
        },
        {
          "internalType": "address",
          "name": "_nftAddress",
          "type": "address"
        }
      ],
      "name": "addDeal",
      "outputs": [
        {
          "internalType": "uint256",
          "name": "",
          "type": "uint256"
        }
      ],
      "stateMutability": "nonpayable",
      "type": "function"
    },
    {
      "inputs": [
        {
          "internalType": "uint256",
          "name": "_dealID",
          "type": "uint256"
        },
        {
          "internalType": "bool",
          "name": "approve",
          "type": "bool"
        }
      ],
      "name": "approveOrRejectDeal",
      "outputs": [],
      "stateMutability": "nonpayable",
      "type": "function"
    },
    {
      "inputs": [],
      "name": "dealCounter",
      "outputs": [
        {
          "internalType": "uint256",
          "name": "",
          "type": "uint256"
        }
      ],
      "stateMutability": "view",
      "type": "function"
    },
    {
      "inputs": [
        {
          "internalType": "uint256",
          "name": "",
          "type": "uint256"
        },
        {
          "internalType": "uint256",
          "name": "",
          "type": "uint256"
        }
      ],
      "name": "dealInvestments",
      "outputs": [
        {
          "internalType": "address",
          "name": "investor",
          "type": "address"
        },
        {
          "internalType": "uint256",
          "name": "amount",
          "type": "uint256"
        },
        {
          "internalType": "bool",
          "name": "withdrawn",
          "type": "bool"
        }
      ],
      "stateMutability": "view",
      "type": "function"
    },
    {
      "inputs": [
        {
          "internalType": "uint256",
          "name": "",
          "type": "uint256"
        }
      ],
      "name": "deals",
      "outputs": [
        {
          "internalType": "uint256",
          "name": "dealID",
          "type": "uint256"
        },
        {
          "internalType": "address",
          "name": "seller",
          "type": "address"
        },
        {
          "internalType": "uint256",
          "name": "minAmt",
          "type": "uint256"
        },
        {
          "internalType": "uint256",
          "name": "targetAmount",
          "type": "uint256"
        },
        {
          "internalType": "uint256",
          "name": "amountRaised",
          "type": "uint256"
        },
        {
          "internalType": "uint256",
          "name": "interestRate",
          "type": "uint256"
        },
        {
          "internalType": "uint256",
          "name": "startDate",
          "type": "uint256"
        },
        {
          "internalType": "uint256",
          "name": "endDate",
          "type": "uint256"
        },
        {
          "internalType": "uint256",
          "name": "tokenID",
          "type": "uint256"
        },
        {
          "internalType": "bool",
          "name": "accepted",
          "type": "bool"
        },
        {
          "internalType": "bool",
          "name": "started",
          "type": "bool"
        },
        {
          "internalType": "bool",
          "name": "repaid",
          "type": "bool"
        },
        {
          "internalType": "bool",
          "name": "active",
          "type": "bool"
        }
      ],
      "stateMutability": "view",
      "type": "function"
    },
    {
      "inputs": [
        {
          "internalType": "uint256",
          "name": "_dealID",
          "type": "uint256"
        }
      ],
      "name": "deleteDeal",
      "outputs": [],
      "stateMutability": "nonpayable",
      "type": "function"
    },
    {
      "inputs": [
        {
          "internalType": "uint256",
          "name": "_dealID",
          "type": "uint256"
        }
      ],
      "name": "invest",
      "outputs": [],
      "stateMutability": "payable",
      "type": "function"
    },
    {
      "inputs": [],
      "name": "investmentCounter",
      "outputs": [
        {
          "internalType": "uint256",
          "name": "",
          "type": "uint256"
        }
      ],
      "stateMutability": "view",
      "type": "function"
    },
    {
      "inputs": [],
      "name": "nftContract",
      "outputs": [
        {
          "internalType": "contract IERC721",
          "name": "",
          "type": "address"
        }
      ],
      "stateMutability": "view",
      "type": "function"
    },
    {
      "inputs": [],
      "name": "owner",
      "outputs": [
        {
          "internalType": "address",
          "name": "",
          "type": "address"
        }
      ],
      "stateMutability": "view",
      "type": "function"
    },
    {
      "inputs": [],
      "name": "renounceOwnership",
      "outputs": [],
      "stateMutability": "nonpayable",
      "type": "function"
    },
    {
      "inputs": [
        {
          "internalType": "uint256",
          "name": "_dealID",
          "type": "uint256"
        }
      ],
      "name": "repay",
      "outputs": [],
      "stateMutability": "payable",
      "type": "function"
    },
    {
      "inputs": [
        {
          "internalType": "uint256",
          "name": "_dealID",
          "type": "uint256"
        }
      ],
      "name": "startDeal",
      "outputs": [],
      "stateMutability": "nonpayable",
      "type": "function"
    },
    {
      "inputs": [
        {
          "internalType": "address",
          "name": "newOwner",
          "type": "address"
        }
      ],
      "name": "transferOwnership",
      "outputs": [],
      "stateMutability": "nonpayable",
      "type": "function"
    },
    {
      "inputs": [
        {
          "internalType": "uint256",
          "name": "_dealID",
          "type": "uint256"
        }
      ],
      "name": "withdraw",
      "outputs": [],
      "stateMutability": "nonpayable",
      "type": "function"
    },
    {
      "stateMutability": "payable",
      "type": "receive"
    }
  ],
  "bytecode": "0x608060405234801561001057600080fd5b5060405161177f38038061177f83398101604081905261002f916100d4565b338061005557604051631e4fbdf760e01b81526000600482015260240160405180910390fd5b61005e81610084565b50600180546001600160a01b0319166001600160a01b0392909216919091179055610104565b600080546001600160a01b038381166001600160a01b0319831681178455604051919092169283917f8be0079c531659141344cd1fd0a4f28419497f9722a3daafe3b4186f6b6457e09190a35050565b6000602082840312156100e657600080fd5b81516001600160a01b03811681146100fd57600080fd5b9392505050565b61166c806101136000396000f3fe6080604052600436106100ec5760003560e01c806378383c7b1161008a578063b43a3de911610059578063b43a3de9146102ff578063b4efcefc1461031f578063d56d229d1461033f578063f2fde38b1461035f57600080fd5b806378383c7b146102775780637994c1a114610297578063892a04ab146102ad5780638da5cb5b146102cd57600080fd5b80632afcf480116100c65780632afcf4801461021a5780632e1a7d4d1461022f578063371fd8e61461024f578063715018a61461026257600080fd5b806303988f84146100f85780630ebf6744146101af578063217328b6146101f657600080fd5b366100f357005b600080fd5b34801561010457600080fd5b5061018d6101133660046113e4565b6004602081905260009182526040909120805460018201546002830154600384015494840154600585015460068601546007870154600888015460099098015496986001600160a01b03909616979496939492939192909160ff80821691610100810482169162010000820481169163010000009004168d565b6040516101a69d9c9b9a999897969594939291906113fd565b60405180910390f35b3480156101bb57600080fd5b506101cf6101ca36600461147f565b61037f565b604080516001600160a01b03909416845260208401929092521515908201526060016101a6565b34801561020257600080fd5b5061020c60025481565b6040519081526020016101a6565b61022d6102283660046113e4565b6103ce565b005b34801561023b57600080fd5b5061022d61024a3660046113e4565b6105f9565b61022d61025d3660046113e4565b610749565b34801561026e57600080fd5b5061022d610a8e565b34801561028357600080fd5b5061022d6102923660046113e4565b610aa2565b3480156102a357600080fd5b5061020c60035481565b3480156102b957600080fd5b5061022d6102c83660046114a1565b610c94565b3480156102d957600080fd5b506000546001600160a01b03165b6040516001600160a01b0390911681526020016101a6565b34801561030b57600080fd5b5061022d61031a3660046113e4565b610e62565b34801561032b57600080fd5b5061020c61033a3660046114eb565b611007565b34801561034b57600080fd5b506001546102e7906001600160a01b031681565b34801561036b57600080fd5b5061022d61037a36600461154b565b6112ea565b6005602052816000526040600020818154811061039b57600080fd5b60009182526020909120600390910201805460018201546002909201546001600160a01b03909116935090915060ff1683565b600081815260046020526040902060098101546301000000900460ff1680156103fb5750600981015460ff165b61044c5760405162461bcd60e51b815260206004820152601b60248201527f4465616c206e6f7420616374697665206f72206163636570746564000000000060448201526064015b60405180910390fd5b8060060154421061049f5760405162461bcd60e51b815260206004820152601460248201527f4465616c20616c726561647920737461727465640000000000000000000000006044820152606401610443565b80600201543410156104f35760405162461bcd60e51b815260206004820152601460248201527f42656c6f77206d696e696d756d20616d6f756e740000000000000000000000006044820152606401610443565b80600301543482600401546105089190611585565b11156105565760405162461bcd60e51b815260206004820152601560248201527f457863656564732074617267657420616d6f756e7400000000000000000000006044820152606401610443565b3481600401600082825461056a9190611585565b9091555050506000908152600560209081526040808320815160608101835233815234818501908152928101858152825460018082018555938752949095209051600390940201805473ffffffffffffffffffffffffffffffffffffffff19166001600160a01b0390941693909317835590519082015590516002909101805460ff1916911515919091179055565b6000818152600460205260409020600981015462010000900460ff166106615760405162461bcd60e51b815260206004820152601360248201527f4465616c206e6f742072657061696420796574000000000000000000000000006044820152606401610443565b6000828152600560205260408120905b815481101561074357600082828154811061068e5761068e61159e565b6000918252602090912060039091020180549091506001600160a01b0316331480156106bf5750600281015460ff16155b1561073a57600181015460058501546000906064906106de90846115b4565b6106e891906115cb565b905060006106f68284611585565b60028501805460ff19166001179055604051909150339082156108fc029083906000818181858888f19350505050158015610735573d6000803e3d6000fd5b505050505b50600101610671565b50505050565b60008181526004602052604090206009810154610100900460ff16801561077b575060098101546301000000900460ff165b6107c75760405162461bcd60e51b815260206004820152601c60248201527f4465616c206e6f742073746172746564206f7220696e616374697665000000006044820152606401610443565b806007015442111561081b5760405162461bcd60e51b815260206004820152600c60248201527f4465616c206578706972656400000000000000000000000000000000000000006044820152606401610443565b60018101546001600160a01b031633146108775760405162461bcd60e51b815260206004820152601560248201527f4f6e6c792073656c6c65722063616e20726570617900000000000000000000006044820152606401610443565b600981015462010000900460ff16156108d25760405162461bcd60e51b815260206004820152600e60248201527f416c7265616479207265706169640000000000000000000000000000000000006044820152606401610443565b60006064826005015483600401546108ea91906115b4565b6108f491906115cb565b9050600060648360030154601e61090b91906115b4565b61091591906115cb565b905060008183856004015461092a9190611585565b6109349190611585565b9050803410156109865760405162461bcd60e51b815260206004820152601660248201527f496e73756666696369656e742072657061796d656e74000000000000000000006044820152606401610443565b60098401805463ffff0000191662010000179055600180549085015460088601546040516323b872dd60e01b81523060048201526001600160a01b03928316602482015260448101919091529116906323b872dd90606401600060405180830381600087803b1580156109f857600080fd5b505af1158015610a0c573d6000803e3d6000fd5b5050505080341115610a5057336108fc610a2683346115ed565b6040518115909202916000818181858888f19350505050158015610a4e573d6000803e3d6000fd5b505b604051818152339086907f032185402cc6e9c1d5b6efce1f3689fb42289adf67730d78ac6d205e1cf0e26e9060200160405180910390a35050505050565b610a96611341565b610aa06000611387565b565b610aaa611341565b6000818152600460205260409020600981015460ff16610b0c5760405162461bcd60e51b815260206004820152601160248201527f4465616c206e6f742061636365707465640000000000000000000000000000006044820152606401610443565b8060060154421015610b605760405162461bcd60e51b815260206004820152601660248201527f53746172742064617465206e6f742072656163686564000000000000000000006044820152606401610443565b6009810154610100900460ff1615610bba5760405162461bcd60e51b815260206004820152600f60248201527f416c7265616479207374617274656400000000000000000000000000000000006044820152606401610443565b60098101805461ff00191661010017905560048101546003820154600090606490610be690601e6115b4565b610bf091906115cb565b90506000610bfe82846115ed565b905080471015610c505760405162461bcd60e51b815260206004820152601d60248201527f496e73756666696369656e7420636f6e74726163742062616c616e63650000006044820152606401610443565b60018401546040516001600160a01b039091169082156108fc029083906000818181858888f19350505050158015610c8c573d6000803e3d6000fd5b505050505050565b610c9c611341565b600082815260046020526040902060098101546301000000900460ff16610d055760405162461bcd60e51b815260206004820152600d60248201527f496e616374697665206465616c000000000000000000000000000000000000006044820152606401610443565b600981015460ff1615610d5a5760405162461bcd60e51b815260206004820152601060248201527f416c726561647920617070726f766564000000000000000000000000000000006044820152606401610443565b8115610dda5760098101805460ff191660011790556003810154600090606490610d8590601e6115b4565b610d8f91906115cb565b905080156107435760018201546040516001600160a01b039091169082156108fc029083906000818181858888f19350505050158015610dd3573d6000803e3d6000fd5b5050505050565b600180549082015460088301546040516323b872dd60e01b81523060048201526001600160a01b03928316602482015260448101919091529116906323b872dd90606401600060405180830381600087803b158015610e3857600080fd5b505af1158015610e4c573d6000803e3d6000fd5b50505050600901805463ff000000191690555050565b610e6a611341565b600081815260046020526040902060098101546301000000900460ff16610ed35760405162461bcd60e51b815260206004820152601460248201527f4465616c20616c72656164792064656c657465640000000000000000000000006044820152606401610443565b60098101805463ff00000019169081905562010000900460ff16158015610f8c575060015460088201546040517f6352211e000000000000000000000000000000000000000000000000000000008152600481019190915230916001600160a01b031690636352211e90602401602060405180830381865afa158015610f5d573d6000803e3d6000fd5b505050506040513d601f19601f82011682018060405250810190610f819190611600565b6001600160a01b0316145b1561100357600180549082015460088301546040516323b872dd60e01b81523060048201526001600160a01b03928316602482015260448101919091529116906323b872dd90606401600060405180830381600087803b158015610fef57600080fd5b505af1158015610c8c573d6000803e3d6000fd5b5050565b600084841161107e5760405162461bcd60e51b815260206004820152602160248201527f456e642064617465206d7573742062652061667465722073746172742064617460448201527f65000000000000000000000000000000000000000000000000000000000000006064820152608401610443565b6040516323b872dd60e01b8152336004820152306024820152604481018490526001600160a01b038316906323b872dd90606401600060405180830381600087803b1580156110cc57600080fd5b505af11580156110e0573d6000803e3d6000fd5b5050600280549250905060006110f58361161d565b9190505550604051806101a001604052806002548152602001336001600160a01b0316815260200189815260200188815260200160008152602001878152602001868152602001858152602001848152602001600015158152602001600015158152602001600015158152602001600115158152506004600060025481526020019081526020016000206000820151816000015560208201518160010160006101000a8154816001600160a01b0302191690836001600160a01b0316021790555060408201518160020155606082015181600301556080820151816004015560a0820151816005015560c0820151816006015560e0820151816007015561010082015181600801556101208201518160090160006101000a81548160ff0219169083151502179055506101408201518160090160016101000a81548160ff0219169083151502179055506101608201518160090160026101000a81548160ff0219169083151502179055506101808201518160090160036101000a81548160ff0219169083151502179055509050507fdc7ee90615a2f43e85238c4a835297032de347f70f1446d800432a935a1dca4360025433856040516112d3939291909283526001600160a01b03919091166020830152604082015260600190565b60405180910390a150600254979650505050505050565b6112f2611341565b6001600160a01b038116611335576040517f1e4fbdf700000000000000000000000000000000000000000000000000000000815260006004820152602401610443565b61133e81611387565b50565b6000546001600160a01b03163314610aa0576040517f118cdaa7000000000000000000000000000000000000000000000000000000008152336004820152602401610443565b600080546001600160a01b0383811673ffffffffffffffffffffffffffffffffffffffff19831681178455604051919092169283917f8be0079c531659141344cd1fd0a4f28419497f9722a3daafe3b4186f6b6457e09190a35050565b6000602082840312156113f657600080fd5b5035919050565b60006101a0820190508e82526001600160a01b038e1660208301528c60408301528b60608301528a60808301528960a08301528860c08301528760e08301528661010083015285151561012083015284151561014083015283151561016083015261146d61018083018415159052565b9e9d5050505050505050505050505050565b6000806040838503121561149257600080fd5b50508035926020909101359150565b600080604083850312156114b457600080fd5b82359150602083013580151581146114cb57600080fd5b809150509250929050565b6001600160a01b038116811461133e57600080fd5b600080600080600080600060e0888a03121561150657600080fd5b873596506020880135955060408801359450606088013593506080880135925060a0880135915060c088013561153b816114d6565b8091505092959891949750929550565b60006020828403121561155d57600080fd5b8135611568816114d6565b9392505050565b634e487b7160e01b600052601160045260246000fd5b808201808211156115985761159861156f565b92915050565b634e487b7160e01b600052603260045260246000fd5b80820281158282048414176115985761159861156f565b6000826115e857634e487b7160e01b600052601260045260246000fd5b500490565b818103818111156115985761159861156f565b60006020828403121561161257600080fd5b8151611568816114d6565b60006001820161162f5761162f61156f565b506001019056fea26469706673582212209edc54f6b4a3d4d947642ebc85e6c8c1213ccda0b9ecc9488ec40b2b5416625b64736f6c63430008180033",
  "linkReferences": {},
  "deployedLinkReferences": {}
}